{
  "contractName": "SimpleStorage",
  "abi": [
    {
      "constant": false,
      "inputs": [
        {
          "name": "x",
          "type": "uint256"
        }
      ],
      "name": "set",
      "outputs": [],
      "payable": false,
      "stateMutability": "nonpayable",
      "type": "function"
    },
    {
      "constant": true,
      "inputs": [],
      "name": "get",
      "outputs": [
        {
          "name": "",
          "type": "uint256"
        }
      ],
      "payable": false,
      "stateMutability": "view",
      "type": "function"
    },
    {
      "constant": true,
      "inputs": [],
      "name": "getName",
      "outputs": [
        {
          "name": "name",
          "type": "string"
        }
      ],
      "payable": false,
      "stateMutability": "view",
      "type": "function"
    },
    {
      "constant": false,
      "inputs": [
        {
          "name": "newName",
          "type": "string"
        }
      ],
      "name": "setName",
      "outputs": [],
      "payable": false,
      "stateMutability": "nonpayable",
      "type": "function"
    }
  ],
  "bytecode": "0x60806040526040518060400160405280600b81526020017f4b61726c277320746573740000000000000000000000000000000000000000008152506001908051906020019061004f929190610062565b5034801561005c57600080fd5b50610107565b828054600181600116156101000203166002900490600052602060002090601f016020900481019282601f106100a357805160ff19168380011785556100d1565b828001600101855582156100d1579182015b828111156100d05782518255916020019190600101906100b5565b5b5090506100de91906100e2565b5090565b61010491905b808211156101005760008160009055506001016100e8565b5090565b90565b6102e1806101166000396000f3fe608060405234801561001057600080fd5b506004361061004c5760003560e01c806317d7de7c1461005157806360fe47b1146100d45780636d4ce63c14610102578063c47f002714610120575b600080fd5b6100596101db565b6040518080602001828103825283818151815260200191508051906020019080838360005b8381101561009957808201518184015260208101905061007e565b50505050905090810190601f1680156100c65780820380516001836020036101000a031916815260200191505b509250505060405180910390f35b610100600480360360208110156100ea57600080fd5b81019080803590602001909291905050506101e3565b005b61010a6101ed565b6040518082815260200191505060405180910390f35b6101d96004803603602081101561013657600080fd5b810190808035906020019064010000000081111561015357600080fd5b82018360208201111561016557600080fd5b8035906020019184600183028401116401000000008311171561018757600080fd5b91908080601f016020809104026020016040519081016040528093929190818152602001838380828437600081840152601f19601f8201169050808301925050505050505091929192905050506101f6565b005b606080905090565b8060008190555050565b60008054905090565b806001908051906020019061020c929190610210565b5050565b828054600181600116156101000203166002900490600052602060002090601f016020900481019282601f1061025157805160ff191683800117855561027f565b8280016001018555821561027f579182015b8281111561027e578251825591602001919060010190610263565b5b50905061028c9190610290565b5090565b6102b291905b808211156102ae576000816000905550600101610296565b5090565b9056fea165627a7a7230582050600cf65f60f8ae2854b00f0d0556c57e8085ec8c46bd955c6b9d21754345860029",
  "source": "pragma solidity ^0.5.0;\n\ncontract SimpleStorage {\n  uint storedData;\n  string private name = \"Karl's test\";\n\n  function set(uint x) public {\n    storedData = x;\n  }\n  \n  function get() public view returns (uint) {\n    return storedData;\n  }\n  \n  function getName() public view returns (string memory name)\n    {\n        return name;\n    }\n  function setName(string memory newName) public\n    {\n        name = newName;\n    }\n}\n\n    \n",
  "sourcePath": "/home/ubuntu/environment/truffl/contracts/SimpleStorage.sol",
  "compiler": {
    "name": "solc",
    "version": "0.5.8+commit.23d335f2.Emscripten.clang"
  },
  "schemaVersion": "3.0.17",
  "updatedAt": "2019-11-12T18:14:29.364Z",
  "networkType": "ethereum",
  "devdoc": {
    "methods": {}
  },
  "userdoc": {
    "methods": {}
  }
}